{
  "contractName": "Casino",
  "abi": [
    {
      "constant": true,
      "inputs": [],
      "name": "numberOfBets",
      "outputs": [
        {
          "name": "",
          "type": "uint256"
        }
      ],
      "payable": false,
      "stateMutability": "view",
      "type": "function"
    },
    {
      "constant": true,
      "inputs": [
        {
          "name": "",
          "type": "address"
        }
      ],
      "name": "playerInfo",
      "outputs": [
        {
          "name": "amountBet",
          "type": "uint256"
        },
        {
          "name": "numberSelected",
          "type": "uint256"
        }
      ],
      "payable": false,
      "stateMutability": "view",
      "type": "function"
    },
    {
      "constant": true,
      "inputs": [],
      "name": "owner",
      "outputs": [
        {
          "name": "",
          "type": "address"
        }
      ],
      "payable": false,
      "stateMutability": "view",
      "type": "function"
    },
    {
      "constant": true,
      "inputs": [],
      "name": "minimumBet",
      "outputs": [
        {
          "name": "",
          "type": "uint256"
        }
      ],
      "payable": false,
      "stateMutability": "view",
      "type": "function"
    },
    {
      "constant": true,
      "inputs": [],
      "name": "maxAmountOfBets",
      "outputs": [
        {
          "name": "",
          "type": "uint256"
        }
      ],
      "payable": false,
      "stateMutability": "view",
      "type": "function"
    },
    {
      "constant": true,
      "inputs": [
        {
          "name": "",
          "type": "uint256"
        }
      ],
      "name": "players",
      "outputs": [
        {
          "name": "",
          "type": "address"
        }
      ],
      "payable": false,
      "stateMutability": "view",
      "type": "function"
    },
    {
      "constant": true,
      "inputs": [],
      "name": "totalBet",
      "outputs": [
        {
          "name": "",
          "type": "uint256"
        }
      ],
      "payable": false,
      "stateMutability": "view",
      "type": "function"
    },
    {
      "inputs": [
        {
          "name": "_minimumBet",
          "type": "uint256"
        }
      ],
      "payable": false,
      "stateMutability": "nonpayable",
      "type": "constructor"
    },
    {
      "payable": true,
      "stateMutability": "payable",
      "type": "fallback"
    },
    {
      "constant": false,
      "inputs": [],
      "name": "kill",
      "outputs": [],
      "payable": false,
      "stateMutability": "nonpayable",
      "type": "function"
    },
    {
      "constant": false,
      "inputs": [
        {
          "name": "numberSelected",
          "type": "uint256"
        }
      ],
      "name": "bet",
      "outputs": [],
      "payable": true,
      "stateMutability": "payable",
      "type": "function"
    },
    {
      "constant": false,
      "inputs": [],
      "name": "generateNumberWinner",
      "outputs": [],
      "payable": false,
      "stateMutability": "nonpayable",
      "type": "function"
    },
    {
      "constant": false,
      "inputs": [
        {
          "name": "numberWinner",
          "type": "uint256"
        }
      ],
      "name": "distributePrizes",
      "outputs": [],
      "payable": false,
      "stateMutability": "nonpayable",
      "type": "function"
    },
    {
      "constant": false,
      "inputs": [],
      "name": "resetData",
      "outputs": [],
      "payable": false,
      "stateMutability": "nonpayable",
      "type": "function"
    }
  ],
  "bytecode": "0x6080604052606460045534801561001557600080fd5b50604051602080610a1d83398101806040528101908080519060200190929190505050336000806101000a81548173ffffffffffffffffffffffffffffffffffffffff021916908373ffffffffffffffffffffffffffffffffffffffff16021790555060008114151561008a57806001819055505b506109838061009a6000396000f3006080604052600436106100ba576000357c0100000000000000000000000000000000000000000000000000000000900463ffffffff1680630a50e361146100bc5780632ca8c6d3146100d357806341c0e1b5146100fe578063478c4e0e146101155780634b1146911461012c5780636ca3fc3b1461018a5780637365870b146101b75780638da5cb5b146101d7578063c38a8afd1461022e578063e08a96cd14610259578063f71d96cb14610284578063fe5e1853146102f1575b005b3480156100c857600080fd5b506100d161031c565b005b3480156100df57600080fd5b506100e861033c565b6040518082815260200191505060405180910390f35b34801561010a57600080fd5b50610113610342565b005b34801561012157600080fd5b5061012a6103d3565b005b34801561013857600080fd5b5061016d600480360381019080803573ffffffffffffffffffffffffffffffffffffffff1690602001909291905050506103f5565b604051808381526020018281526020019250505060405180910390f35b34801561019657600080fd5b506101b560048036038101908080359060200190929190505050610419565b005b6101d560048036038101908080359060200190929190505050610658565b005b3480156101e357600080fd5b506101ec6107ca565b604051808273ffffffffffffffffffffffffffffffffffffffff1673ffffffffffffffffffffffffffffffffffffffff16815260200191505060405180910390f35b34801561023a57600080fd5b506102436107ef565b6040518082815260200191505060405180910390f35b34801561026557600080fd5b5061026e6107f5565b6040518082815260200191505060405180910390f35b34801561029057600080fd5b506102af600480360381019080803590602001909291905050506107fb565b604051808273ffffffffffffffffffffffffffffffffffffffff1673ffffffffffffffffffffffffffffffffffffffff16815260200191505060405180910390f35b3480156102fd57600080fd5b50610306610839565b6040518082815260200191505060405180910390f35b60006001600a4381151561032c57fe5b0601905061033981610419565b50565b60035481565b6000809054906101000a900473ffffffffffffffffffffffffffffffffffffffff1673ffffffffffffffffffffffffffffffffffffffff163373ffffffffffffffffffffffffffffffffffffffff1614156103d1576000809054906101000a900473ffffffffffffffffffffffffffffffffffffffff1673ffffffffffffffffffffffffffffffffffffffff16ff5b565b60006005816103e291906108e2565b5060006002819055506000600381905550565b60066020528060005260406000206000915090508060000154908060010154905082565b61042161090e565b6000806000806000809450600093505b6005805490508410156105725760058481548110151561044d57fe5b9060005260206000200160009054906101000a900473ffffffffffffffffffffffffffffffffffffffff16925086600660008573ffffffffffffffffffffffffffffffffffffffff1673ffffffffffffffffffffffffffffffffffffffff168152602001908152602001600020600101541415610513578286866064811015156104d357fe5b602002019073ffffffffffffffffffffffffffffffffffffffff16908173ffffffffffffffffffffffffffffffffffffffff168152505084806001019550505b600660008473ffffffffffffffffffffffffffffffffffffffff1673ffffffffffffffffffffffffffffffffffffffff168152602001908152602001600020600080820160009055600182016000905550508380600101945050610431565b600060058161058191906108e2565b50606460025481151561059057fe5b049150600090505b8481101561064f57600073ffffffffffffffffffffffffffffffffffffffff1686826064811015156105c657fe5b602002015173ffffffffffffffffffffffffffffffffffffffff161415156106425785816064811015156105f657fe5b602002015173ffffffffffffffffffffffffffffffffffffffff166108fc839081150290604051600060405180830381858888f19350505050158015610640573d6000803e3d6000fd5b505b8080600101915050610598565b50505050505050565b6106613361083f565b15151561066d57600080fd5b6001811015801561067f5750600a8111155b151561068a57600080fd5b600154341015151561069b57600080fd5b34600660003373ffffffffffffffffffffffffffffffffffffffff1673ffffffffffffffffffffffffffffffffffffffff1681526020019081526020016000206000018190555080600660003373ffffffffffffffffffffffffffffffffffffffff1673ffffffffffffffffffffffffffffffffffffffff1681526020019081526020016000206001018190555060036000815480929190600101919050555060053390806001815401808255809150509060018203906000526020600020016000909192909190916101000a81548173ffffffffffffffffffffffffffffffffffffffff021916908373ffffffffffffffffffffffffffffffffffffffff16021790555050346002600082825401925050819055506004546003541015156107c7576107c661031c565b5b50565b6000809054906101000a900473ffffffffffffffffffffffffffffffffffffffff1681565b60015481565b60045481565b60058181548110151561080a57fe5b906000526020600020016000915054906101000a900473ffffffffffffffffffffffffffffffffffffffff1681565b60025481565b600080600090505b6005805490508110156108d7578273ffffffffffffffffffffffffffffffffffffffff1660058281548110151561087a57fe5b9060005260206000200160009054906101000a900473ffffffffffffffffffffffffffffffffffffffff1673ffffffffffffffffffffffffffffffffffffffff1614156108ca57600191506108dc565b8080600101915050610847565b600091505b50919050565b815481835581811115610909578183600052602060002091820191016109089190610932565b5b505050565b610c8060405190810160405280606490602082028038833980820191505090505090565b61095491905b80821115610950576000816000905550600101610938565b5090565b905600a165627a7a72305820fecec2cac71a6ef9d1cb951a569ca0979b0134bd470f5d7817f70ba2b714ac1f0029",
  "source": "pragma solidity 0.4.24;\r\n\r\ncontract Casino {\r\n    address public owner;\r\n    uint256 public minimumBet;\r\n    uint256 public totalBet;\r\n    uint256 public numberOfBets;\r\n    uint256 public maxAmountOfBets = 100;\r\n    address[] public players;\r\n\r\n    struct Player {\r\n        uint256 amountBet;\r\n        uint256 numberSelected;\r\n    }\r\n    // The address of the player and => the user info   \r\n    mapping(address => Player) public playerInfo;\r\n\r\n    constructor(uint256 _minimumBet) public {\r\n        owner = msg.sender;\r\n        if (_minimumBet != 0 ) minimumBet = _minimumBet;\r\n    }\r\n\r\n    function kill() public {\r\n        if (msg.sender == owner) selfdestruct(owner);\r\n    }\r\n\r\n    function checkPlayerExists(address player) private constant returns(bool){\r\n        for(uint256 i = 0; i < players.length; i++){\r\n            if (players[i] == player) return true;\r\n        }\r\n\r\n        return false;\r\n    }\r\n\r\n    // To bet for a number between 1 and 10 both inclusive\r\n    function bet(uint256 numberSelected) public payable {\r\n        require(!checkPlayerExists(msg.sender));\r\n        require(numberSelected >= 1 && numberSelected <= 10);\r\n        require(msg.value >= minimumBet);\r\n\r\n        playerInfo[msg.sender].amountBet = msg.value;\r\n        playerInfo[msg.sender].numberSelected = numberSelected;\r\n        numberOfBets++;\r\n        players.push(msg.sender);\r\n        totalBet += msg.value;\r\n\r\n        if (numberOfBets >= maxAmountOfBets) generateNumberWinner();\r\n    }\r\n\r\n    // Generates a number between 1 and 10 that will be the winner\r\n    function generateNumberWinner() public {\r\n        uint256 numberGenerated = block.number % 10 + 1; // This isn't secure\r\n        distributePrizes(numberGenerated);\r\n    }\r\n\r\n\r\n    // Sends the corresponding ether to each winner depending on the total bets\r\n    function distributePrizes(uint256 numberWinner) public {\r\n        address[100] memory winners; // We have to create a temporary in memory array with fixed size\r\n        uint256 count = 0; // This is the count for the array of winners\r\n\r\n        for(uint256 i = 0; i < players.length; i++){\r\n            address playerAddress = players[i];\r\n            if (playerInfo[playerAddress].numberSelected == numberWinner) {\r\n                winners[count] = playerAddress;\r\n                count++;\r\n            }\r\n            delete playerInfo[playerAddress]; // Delete all the players\r\n        }\r\n\r\n        players.length = 0; // Delete all the players array\r\n        uint256 winnerEtherAmount = totalBet / winners.length; // How much each winner gets\r\n\r\n        for(uint256 j = 0; j < count; j++) {\r\n            if (winners[j] != address(0)) { // Check that the address in this fixed array is not empty\r\n                winners[j].transfer(winnerEtherAmount);\r\n            }\r\n        }\r\n    }\r\n    \r\n    function resetData() public {\r\n        players.length = 0; // Delete all the players array\r\n        totalBet = 0;\r\n        numberOfBets = 0;\r\n    }\r\n\r\n    // Fallback function in case someone sends ether to the contract so it doesn't get lost and to increase the treasury of this contract that will be distributed in each game\r\n    function() public payable {}\r\n}",
  "sourcePath": "/mnt/c/Users/uli/projects/warpigs/contracts/Casino.sol",
  "compiler": {
    "name": "solc",
    "version": "0.4.24+commit.e67f0147.Emscripten.clang"
  },
  "schemaVersion": "2.0.1",
  "updatedAt": "2018-06-30T05:15:24.616Z"
}