{
  "contractName": "Warpigs",
  "abi": [
    {
      "constant": true,
      "inputs": [
        {
          "name": "",
          "type": "uint256"
        }
      ],
      "name": "pigs",
      "outputs": [
        {
          "name": "",
          "type": "address"
        }
      ],
      "payable": false,
      "stateMutability": "view",
      "type": "function"
    },
    {
      "constant": true,
      "inputs": [],
      "name": "owner",
      "outputs": [
        {
          "name": "",
          "type": "address"
        }
      ],
      "payable": false,
      "stateMutability": "view",
      "type": "function"
    },
    {
      "constant": true,
      "inputs": [
        {
          "name": "",
          "type": "address"
        }
      ],
      "name": "pigInfo",
      "outputs": [
        {
          "name": "amountPaid",
          "type": "uint256"
        }
      ],
      "payable": false,
      "stateMutability": "view",
      "type": "function"
    },
    {
      "inputs": [],
      "payable": false,
      "stateMutability": "nonpayable",
      "type": "constructor"
    },
    {
      "payable": true,
      "stateMutability": "payable",
      "type": "fallback"
    },
    {
      "constant": false,
      "inputs": [],
      "name": "kill",
      "outputs": [],
      "payable": false,
      "stateMutability": "nonpayable",
      "type": "function"
    },
    {
      "constant": false,
      "inputs": [],
      "name": "sendEthToContract",
      "outputs": [],
      "payable": true,
      "stateMutability": "payable",
      "type": "function"
    },
    {
      "constant": false,
      "inputs": [],
      "name": "resetData",
      "outputs": [],
      "payable": false,
      "stateMutability": "nonpayable",
      "type": "function"
    }
  ],
  "bytecode": "0x608060405234801561001057600080fd5b50336000806101000a81548173ffffffffffffffffffffffffffffffffffffffff021916908373ffffffffffffffffffffffffffffffffffffffff1602179055506104d0806100606000396000f300608060405260043610610078576000357c0100000000000000000000000000000000000000000000000000000000900463ffffffff1680631d0316de1461007a57806341c0e1b5146100e7578063478c4e0e146100fe578063713f5e4d146101155780638da5cb5b1461011f5780639007b45d14610176575b005b34801561008657600080fd5b506100a5600480360381019080803590602001909291905050506101cd565b604051808273ffffffffffffffffffffffffffffffffffffffff1673ffffffffffffffffffffffffffffffffffffffff16815260200191505060405180910390f35b3480156100f357600080fd5b506100fc61020b565b005b34801561010a57600080fd5b5061011361029c565b005b61011d6102ae565b005b34801561012b57600080fd5b5061013461036d565b604051808273ffffffffffffffffffffffffffffffffffffffff1673ffffffffffffffffffffffffffffffffffffffff16815260200191505060405180910390f35b34801561018257600080fd5b506101b7600480360381019080803573ffffffffffffffffffffffffffffffffffffffff169060200190929190505050610392565b6040518082815260200191505060405180910390f35b6001818154811015156101dc57fe5b906000526020600020016000915054906101000a900473ffffffffffffffffffffffffffffffffffffffff1681565b6000809054906101000a900473ffffffffffffffffffffffffffffffffffffffff1673ffffffffffffffffffffffffffffffffffffffff163373ffffffffffffffffffffffffffffffffffffffff16141561029a576000809054906101000a900473ffffffffffffffffffffffffffffffffffffffff1673ffffffffffffffffffffffffffffffffffffffff16ff5b565b60006001816102ab9190610453565b50565b34600260003373ffffffffffffffffffffffffffffffffffffffff1673ffffffffffffffffffffffffffffffffffffffff168152602001908152602001600020600001819055506102fe336103b0565b151561036b5760013390806001815401808255809150509060018203906000526020600020016000909192909190916101000a81548173ffffffffffffffffffffffffffffffffffffffff021916908373ffffffffffffffffffffffffffffffffffffffff160217905550505b565b6000809054906101000a900473ffffffffffffffffffffffffffffffffffffffff1681565b60026020528060005260406000206000915090508060000154905081565b600080600090505b600180549050811015610448578273ffffffffffffffffffffffffffffffffffffffff166001828154811015156103eb57fe5b9060005260206000200160009054906101000a900473ffffffffffffffffffffffffffffffffffffffff1673ffffffffffffffffffffffffffffffffffffffff16141561043b576001915061044d565b80806001019150506103b8565b600091505b50919050565b81548183558181111561047a57818360005260206000209182019101610479919061047f565b5b505050565b6104a191905b8082111561049d576000816000905550600101610485565b5090565b905600a165627a7a723058200246b8d44a3c523cf7ec5e4bdf7e35c9404afe4f1512908bfddcff15832c7c3f0029",
  "source": "pragma solidity 0.4.24;\r\n\r\ncontract Warpigs {\r\n    address public owner;\r\n    address[] public pigs;\r\n\r\n    struct Pig {\r\n        uint256 amountPaid;\r\n    }\r\n    // The address of the Pig and => the pig info   \r\n    mapping(address => Pig) public pigInfo;\r\n\r\n    constructor() public {\r\n        owner = msg.sender;\r\n    }\r\n\r\n    function kill() public {\r\n        if (msg.sender == owner) selfdestruct(owner);\r\n    }\r\n\r\n    function checkPigExists(address pig) private constant returns(bool){\r\n        for(uint256 i = 0; i < pigs.length; i++){\r\n            if (pigs[i] == pig) return true;\r\n        }\r\n\r\n        return false;\r\n    }\r\n\r\n    function sendEthToContract() public payable{\r\n        pigInfo[msg.sender].amountPaid = msg.value;\r\n\r\n        if (!checkPigExists(msg.sender)) {\r\n            pigs.push(msg.sender);\r\n        }\r\n    }\r\n    \r\n    function resetData() public {\r\n        pigs.length = 0; // Delete all the players array\r\n    }\r\n\r\n    // Fallback function in case someone sends ether to the contract so it doesn't get lost and to increase the treasury of this contract that will be distributed in each game\r\n    function() public payable {}\r\n}",
  "sourcePath": "/mnt/c/Users/uli/projects/warpigs/contracts/Warpigs.sol",
  "compiler": {
    "name": "solc",
    "version": "0.4.24+commit.e67f0147.Emscripten.clang"
  },
  "schemaVersion": "2.0.1",
  "updatedAt": "2018-06-30T05:15:24.613Z"
}